{
  "contractName": "ERC20Migrator",
  "abi": [
    {
      "inputs": [
        {
          "name": "legacyToken",
          "type": "address"
        }
      ],
      "payable": false,
      "stateMutability": "nonpayable",
      "type": "constructor"
    },
    {
      "constant": true,
      "inputs": [],
      "name": "legacyToken",
      "outputs": [
        {
          "name": "",
          "type": "address"
        }
      ],
      "payable": false,
      "stateMutability": "view",
      "type": "function"
    },
    {
      "constant": true,
      "inputs": [],
      "name": "newToken",
      "outputs": [
        {
          "name": "",
          "type": "address"
        }
      ],
      "payable": false,
      "stateMutability": "view",
      "type": "function"
    },
    {
      "constant": false,
      "inputs": [
        {
          "name": "newToken",
          "type": "address"
        }
      ],
      "name": "beginMigration",
      "outputs": [],
      "payable": false,
      "stateMutability": "nonpayable",
      "type": "function"
    },
    {
      "constant": false,
      "inputs": [
        {
          "name": "account",
          "type": "address"
        },
        {
          "name": "amount",
          "type": "uint256"
        }
      ],
      "name": "migrate",
      "outputs": [],
      "payable": false,
      "stateMutability": "nonpayable",
      "type": "function"
    },
    {
      "constant": false,
      "inputs": [
        {
          "name": "account",
          "type": "address"
        }
      ],
      "name": "migrateAll",
      "outputs": [],
      "payable": false,
      "stateMutability": "nonpayable",
      "type": "function"
    }
  ],
  "bytecode": "0x608060405234801561001057600080fd5b506040516020806109c583398101806040528101908080519060200190929190505050600073ffffffffffffffffffffffffffffffffffffffff168173ffffffffffffffffffffffffffffffffffffffff161415151561006f57600080fd5b806000806101000a81548173ffffffffffffffffffffffffffffffffffffffff021916908373ffffffffffffffffffffffffffffffffffffffff16021790555050610906806100bf6000396000f30060806040526004361061006d576000357c0100000000000000000000000000000000000000000000000000000000900463ffffffff168063104d26141461007257806313155455146100b55780635a8cadb11461010c578063ad68ebf71461014f578063c42bd05a1461019c575b600080fd5b34801561007e57600080fd5b506100b3600480360381019080803573ffffffffffffffffffffffffffffffffffffffff1690602001909291905050506101f3565b005b3480156100c157600080fd5b506100ca6103b1565b604051808273ffffffffffffffffffffffffffffffffffffffff1673ffffffffffffffffffffffffffffffffffffffff16815260200191505060405180910390f35b34801561011857600080fd5b5061014d600480360381019080803573ffffffffffffffffffffffffffffffffffffffff1690602001909291905050506103da565b005b34801561015b57600080fd5b5061019a600480360381019080803573ffffffffffffffffffffffffffffffffffffffff16906020019092919080359060200190929190505050610621565b005b3480156101a857600080fd5b506101b1610774565b604051808273ffffffffffffffffffffffffffffffffffffffff1673ffffffffffffffffffffffffffffffffffffffff16815260200191505060405180910390f35b600073ffffffffffffffffffffffffffffffffffffffff16600160009054906101000a900473ffffffffffffffffffffffffffffffffffffffff1673ffffffffffffffffffffffffffffffffffffffff1614151561025057600080fd5b600073ffffffffffffffffffffffffffffffffffffffff168173ffffffffffffffffffffffffffffffffffffffff161415151561028c57600080fd5b8073ffffffffffffffffffffffffffffffffffffffff1663aa271e1a306040518263ffffffff167c0100000000000000000000000000000000000000000000000000000000028152600401808273ffffffffffffffffffffffffffffffffffffffff1673ffffffffffffffffffffffffffffffffffffffff168152602001915050602060405180830381600087803b15801561032757600080fd5b505af115801561033b573d6000803e3d6000fd5b505050506040513d602081101561035157600080fd5b8101908080519060200190929190505050151561036d57600080fd5b80600160006101000a81548173ffffffffffffffffffffffffffffffffffffffff021916908373ffffffffffffffffffffffffffffffffffffffff16021790555050565b60008060009054906101000a900473ffffffffffffffffffffffffffffffffffffffff16905090565b60008060008060009054906101000a900473ffffffffffffffffffffffffffffffffffffffff1673ffffffffffffffffffffffffffffffffffffffff166370a08231856040518263ffffffff167c0100000000000000000000000000000000000000000000000000000000028152600401808273ffffffffffffffffffffffffffffffffffffffff1673ffffffffffffffffffffffffffffffffffffffff168152602001915050602060405180830381600087803b15801561049b57600080fd5b505af11580156104af573d6000803e3d6000fd5b505050506040513d60208110156104c557600080fd5b810190808051906020019092919050505092506000809054906101000a900473ffffffffffffffffffffffffffffffffffffffff1673ffffffffffffffffffffffffffffffffffffffff1663dd62ed3e85306040518363ffffffff167c0100000000000000000000000000000000000000000000000000000000028152600401808373ffffffffffffffffffffffffffffffffffffffff1673ffffffffffffffffffffffffffffffffffffffff1681526020018273ffffffffffffffffffffffffffffffffffffffff1673ffffffffffffffffffffffffffffffffffffffff16815260200192505050602060405180830381600087803b1580156105c857600080fd5b505af11580156105dc573d6000803e3d6000fd5b505050506040513d60208110156105f257600080fd5b8101908080519060200190929190505050915061060f838361079e565b905061061b8482610621565b50505050565b61066f8230836000809054906101000a900473ffffffffffffffffffffffffffffffffffffffff1673ffffffffffffffffffffffffffffffffffffffff166107b7909392919063ffffffff16565b600160009054906101000a900473ffffffffffffffffffffffffffffffffffffffff1673ffffffffffffffffffffffffffffffffffffffff166340c10f1983836040518363ffffffff167c0100000000000000000000000000000000000000000000000000000000028152600401808373ffffffffffffffffffffffffffffffffffffffff1673ffffffffffffffffffffffffffffffffffffffff16815260200182815260200192505050602060405180830381600087803b15801561073457600080fd5b505af1158015610748573d6000803e3d6000fd5b505050506040513d602081101561075e57600080fd5b8101908080519060200190929190505050505050565b6000600160009054906101000a900473ffffffffffffffffffffffffffffffffffffffff16905090565b60008183106107ad57816107af565b825b905092915050565b8373ffffffffffffffffffffffffffffffffffffffff166323b872dd8484846040518463ffffffff167c0100000000000000000000000000000000000000000000000000000000028152600401808473ffffffffffffffffffffffffffffffffffffffff1673ffffffffffffffffffffffffffffffffffffffff1681526020018373ffffffffffffffffffffffffffffffffffffffff1673ffffffffffffffffffffffffffffffffffffffff1681526020018281526020019350505050602060405180830381600087803b15801561088e57600080fd5b505af11580156108a2573d6000803e3d6000fd5b505050506040513d60208110156108b857600080fd5b810190808051906020019092919050505015156108d457600080fd5b505050505600a165627a7a72305820a9a117f3f408904440a15dabbcdefadecad67e4c7fc4fde034deccbbe75188910029",
  "source": "pragma solidity ^0.4.24;\n\nimport \"../token/ERC20/IERC20.sol\";\nimport \"../token/ERC20/ERC20Mintable.sol\";\nimport \"../token/ERC20/SafeERC20.sol\";\nimport \"../math/Math.sol\";\n\n/**\n * @title ERC20Migrator\n * @dev This contract can be used to migrate an ERC20 token from one\n * contract to another, where each token holder has to opt-in to the migration.\n * To opt-in, users must approve for this contract the number of tokens they\n * want to migrate. Once the allowance is set up, anyone can trigger the\n * migration to the new token contract. In this way, token holders \"turn in\"\n * their old balance and will be minted an equal amount in the new token.\n * The new token contract must be mintable. For the precise interface refer to\n * OpenZeppelin's ERC20Mintable, but the only functions that are needed are\n * `isMinter(address)` and `mint(address, amount)`. The migrator will check\n * that it is a minter for the token.\n * The balance from the legacy token will be transfered to the migrator, as it\n * is migrated, and remain there forever.\n * Although this contract can be used in many different scenarios, the main\n * motivation was to provide a way to migrate ERC20 tokens into an upgradeable\n * version of it using ZeppelinOS. To read more about how this can be done\n * using this implementation, please follow the official documentation site of\n * ZeppelinOS: https://docs.zeppelinos.org/docs/erc20_onboarding.html\n * Example of usage:\n * ```\n * const migrator = await ERC20Migrator.new(legacyToken.address);\n * await newToken.addMinter(migrator.address);\n * await migrator.beginMigration(newToken.address);\n * ```\n */\ncontract ERC20Migrator {\n  using SafeERC20 for IERC20;\n\n  /// Address of the old token contract\n  IERC20 private _legacyToken;\n\n  /// Address of the new token contract\n  ERC20Mintable private _newToken;\n\n  /**\n   * @param legacyToken address of the old token contract\n   */\n  constructor(IERC20 legacyToken) public {\n    require(legacyToken != address(0));\n    _legacyToken = legacyToken;\n  }\n\n  /**\n   * @dev Returns the legacy token that is being migrated.\n   */\n  function legacyToken() public view returns (IERC20) {\n    return _legacyToken;\n  }\n\n  /**\n   * @dev Returns the new token to which we are migrating.\n   */\n  function newToken() public view returns (IERC20) {\n    return _newToken;\n  }\n\n  /**\n   * @dev Begins the migration by setting which is the new token that will be\n   * minted. This contract must be a minter for the new token.\n   * @param newToken the token that will be minted\n   */\n  function beginMigration(ERC20Mintable newToken) public {\n    require(_newToken == address(0));\n    require(newToken != address(0));\n    require(newToken.isMinter(this));\n\n    _newToken = newToken;\n  }\n\n  /**\n   * @dev Transfers part of an account's balance in the old token to this\n   * contract, and mints the same amount of new tokens for that account.\n   * @param account whose tokens will be migrated\n   * @param amount amount of tokens to be migrated\n   */\n  function migrate(address account, uint256 amount) public {\n    _legacyToken.safeTransferFrom(account, this, amount);\n    _newToken.mint(account, amount);\n  }\n\n  /**\n   * @dev Transfers all of an account's allowed balance in the old token to\n   * this contract, and mints the same amount of new tokens for that account.\n   * @param account whose tokens will be migrated\n   */\n  function migrateAll(address account) public {\n    uint256 balance = _legacyToken.balanceOf(account);\n    uint256 allowance = _legacyToken.allowance(account, this);\n    uint256 amount = Math.min(balance, allowance);\n    migrate(account, amount);\n  }\n}\n",
  "sourcePath": "/Users/taiju/Documents/development/erc865-sandbox/contracts/openzeppelin-solidity/contracts/drafts/ERC20Migrator.sol",
  "compiler": {
    "name": "solc",
    "version": "0.4.24+commit.e67f0147.Emscripten.clang"
  },
  "schemaVersion": "2.0.1",
  "updatedAt": "2018-12-06T15:15:59.513Z"
}